:020000040800F2
:10000000A835002001010008F94900088D2D0008DD
:10001000F5490008A90A0008454C00080000000046
:10002000000000000000000000000000214B00085C
:10003000B90A000800000000FD490008254B00082F
:100040001B0100081B0100081B0100081B01000820
:100050001B0100081B0100081B0100081B01000810
:100060001B0100081B0100081B010008AD0A000865
:100070001B0100081B0100081B0100081B010008F0
:100080001B0100081B0100081B0100081B010008E0
:100090001B0100081B0100081B0100081B010008D0
:1000A0001B0100081B0100081B0100081B010008C0
:1000B0001B0100081B0100081B0100081B010008B0
:1000C0001B0100081B0100081B0100081B010008A0
:1000D0001B010008394C00081B0100081B01000827
:1000E0001B0100081B0100081B010008DFF80CD0F1
:1000F00000F030FC004800474D660008A83500209D
:100100000648804706480047FEE7FEE7FEE7FEE7B1
:10011000FEE7FEE7FEE7FEE7FEE7FEE7294B000805
:10012000ED0000082DE9F05F0546002092469B4651
:1001300088460646814640241BE0284641464746FD
:10014000224600F0F2FA53465A46C01A914110D3A3
:1001500011461846224600F0D9FA2D1A67EB01081D
:100160004F4622460120002100F0D0FA17EB00098B
:100170004E41201EA4F10104DFDC484631462A46E8
:100180004346BDE8F09FF0B480EA0102D40F42007C
:10019000B2EB410F02D20246084611464A0042D055
:1001A000C30DDDB2C1F3C752AD1A202D35DAC1F34C
:1001B000160141F4000204B15242C5F1200602FAD0
:1001C00006F12A411044B3EBD05F23D0C4B1012D16
:1001D000A0EBC35009DCF0BC4FF0004202EAC3526E
:1001E000DBB200F5000000F0CBBA400000F18070F7
:1001F00000EBC350A0F1807040EAD170490009E0E3
:10020000490841EAC071A0EBC35000F50000400866
:1002100000EBC350F0BC00F0AABA6142012202EB2D
:100220004101001BF6E7F0BC704781F00041AAE7EE
:1002300080F00040A7E780EA010210B502F0004319
:10024000400022D04A001FD0010E01EB1261C0F322
:100250005600C2F3560240F4000042F40002A0FB34
:10026000022000047F39140400D0401C50EA1240E0
:1002700001D44000491EC2B20C0604EBD010401C51
:100280004008802A02D003E0002010BD20F00100C9
:10029000002900DA0020184310BD30B480EA0102C2
:1002A00002F0004530F0004221F0004013D090B140
:1002B000C30DD40DC2F31601C0F31600E41A41F4C5
:1002C000000140F400027D34914201D3641C00E03F
:1002D0004900002C02DA30BC002070474FF40000C7
:1002E0000023914201D3891A034340084FEA410198
:1002F000F7D151B1914202D14FF0004105E002D255
:100300004FF0010101E06FF0010103EBC4502844FC
:1003100030BC00F02CBA2DE9FE4F804681EA030084
:10032000C00F0C46009021F0004123F00045B8EBCF
:100330000200A94105D24046214690461C460B4684
:10034000024623F00040104347D0270DC7F30A00B0
:10035000C3F30A510290401A019040286BDAC3F3AC
:10036000130040F4801B0098924620B10023D2EB8A
:10037000030A63EB0B0B01985946C0F1400250464B
:1003800000F0C4F906460D4650465946019A00F061
:10039000DCF910EB08006141002487EA115284EA7D
:1003A000E7731A4340D0009A62B3019A012A4FEAD8
:1003B000075215DC001B61EB02014FF0004202EA1C
:1003C0000752CDE90042001C41F5801132462B4610
:1003D00000F042FA03B0BDE8F08F40462146F9E74D
:1003E000001B61EB0201001C41F5801300185B410A
:1003F0002018A2F5001747EB030140EAD570B619A3
:100400006D4111E06D084FEA360645EAC0754FEAC6
:100410000752001B61EB0201001C41F580114908E5
:100420004FEA30000019514132462B4603B0BDE877
:10043000F04F00F002BA0098012240000023D0EBF8
:10044000020263EBE073009821464FEAE074B8EBD8
:10045000000061EB0401E9E783F000435BE781F012
:10046000004158E72DE9FE4F81EA030404F00044FF
:1004700021F0004100944FF0000B23F0004350EABC
:1004800001045ED052EA03045BD0C3F30A54C1F303
:100490000A552C44A4F2F3340194A0FB0254C1F396
:1004A000130141F48011C3F3130343F4801301FBE0
:1004B000024400FB034E840A970A44EA815447EA47
:1004C0008357A4FB076802958D0A05FB07854FEA51
:1004D000932C04FB0C542705029D4FEA065847EA6B
:1004E0001637B5EB08056EEB070C870E920E47EA40
:1004F000811742EA8312A7FB0201B6EB0B0164EB02
:1005000000042B0D43EA0C335E1844EB1C50DA4612
:100510005146E7FB0201C5F313044FEA0B3343EAEC
:1005200014534FEA0432019C43EA0603A4F10C047D
:100530000294009CCDE900B400F08EF903B0BDE850
:10054000F08F00200146F9E72DE9F04D81EA030420
:1005500004F0004B21F0004514464FF0000A23F050
:10056000004150EA050220D054EA01021DD0C5F333
:100570000A570246C5F31303C1F31300C1F30A5629
:1005800040F4801543F48013A7EB0608101BD646F1
:1005900008F2FD3873EB050002D308F1010801E011
:1005A00092185B41B8F1000F03DA00200146BDE864
:1005B000F08D00204FF48011064684460EE0171B94
:1005C00073EB050705D3121B63EB050306434CEAE7
:1005D000010C49084FEA300092185B4150EA0107CC
:1005E000EDD152EA030012D082EA040083EA050149
:1005F000084305D0101BAB4106D20122002306E0C0
:1006000000224FF0004302E06FF0010253101AEB9A
:1006100006004CEB085110EB0A0041EB0B01BDE862
:10062000F04D00F00AB9002801DBC0F100400029BC
:1006300001DBC1F10041814201D20120704700205D
:100640007047002801DBC0F10040002901DBC1F147
:100650000041814201D3012070470020704796235A
:100660000022114600F08CB80EB540F233410291E1
:100670000021CDE900110A460B4600F0EDF803B069
:1006800000BD00F0004230F000400AD0C10D01F57D
:100690006071C0F3160042EA0151C20840071143DD
:1006A000704700200146704701F0004330B421F04C
:1006B000004150EA010206D00A0DA2F56072C1F3B2
:1006C0001301002A02DC30BC00207047440F44EACA
:1006D000C104C100E01830BC00EBC25000F047B8C4
:1006E00030B50B46014600202022012409E021FA02
:1006F00002F59D4205D303FA02F5491B04FA02F5FF
:100700002844151EA2F10102F1DC30BD202A04DBD1
:10071000203A00FA02F1002070479140C2F1200314
:1007200020FA03F3194390407047202A04DB203A53
:1007300021FA02F00021704721FA02F3D040C2F101
:1007400020029140084319467047202A06DBCB1748
:10075000203A41FA02F043EAE07306E041FA02F37C
:10076000D040C2F120029140084319467047002949
:10077000A8BF7047401C490008BF20F00100704727
:1007800010B4B0FA80FC00FA0CF050EA010404BF87
:1007900010BC704749B1CCF1200421FA04F411FADD
:1007A0000CF118BF012121430843A3EB0C01CB1D21
:1007B0004FEA00614FEA102042BF002010BC704792
:1007C00000EBC35010440029A4BF10BC7047401C6C
:1007D000490008BF20F0010010BC7047F0B40028A9
:1007E00002DCF0BC00207047C0F3C751C0F3160014
:1007F00040F40000CA0701D14000491E3F2202EB2D
:100800006105002211464FF4000626FA01F3134455
:10081000D418844201D8001B1A464000491C1729ED
:10082000F3DD5100814202D24FF0FF3100E00021A0
:1008300002EBC550F0BCFFF79ABF10B5141E73F160
:10084000000408DA401C41F1000192185B411A4390
:1008500001D120F0010010BD2DE9F04D92469B46DC
:1008600011B1B1FA81F202E0B0FA80F22032904682
:10087000FFF74CFF04460F4640EA0A0041EA0B012D
:1008800053465A46084313D0114653EA010019D083
:10089000C8F140025046FFF748FF05460E46504655
:1008A00059464246FFF732FF084305D0012004E0D5
:1008B00020463946BDE8F08D0020054346EAE07643
:1008C0002C4337430A986305E40AA0EB0800002292
:1008D000FD0A44EA47540A3002D500200146E9E700
:1008E000010510196941DDE9084500196941BDE8B4
:1008F000F04DA2E7C1F30A52C1F3130140F2FF33F6
:1009000041F480119A4202DA00200146704740F219
:1009100033439A42A2F2334202DC5242FFF705BF50
:10092000FFF7F4BE30B5041E71F1000404DB4FF094
:100930000044404264EB0101141E73F1000405DB26
:100940001C464FF00043524263EB0403994208BF38
:10095000904230BD1CB509480090094801900546F9
:10096000009C06E0E06840F0010394E80700984727
:100970001034AC42F6D3FFF7BDFB000074A70008AB
:1009800094A700080146406A826A12F0500F03D013
:10099000006A026B084610470168826A42F40072DE
:1009A0008262896801F46021B1F5602F01D1017B79
:1009B00011B100F029B900BF816A21F48071816210
:1009C000816AC90448BF00F01FB9816A41F0010182
:1009D000816200F019B90000406A816A41F040016B
:1009E0008162C16A41F00401C16200F02BB90000CC
:1009F000406A00F025B90000B0B582B0044600207E
:100A0000019021688A68D2074BD1886840F00100C4
:100A1000886040F21000C2F2000000684DF6836169
:100A2000C4F21B31A0FB0101880C01900198A0B118
:100A3000019801380190019878B10198013801902E
:100A4000019850B1019801380190019828B101989E
:100A50000138019001980028EAD100F08DFD21684D
:100A60008968C9071CD1054603E000BF8068C0073C
:100A700016D100F081FD411B20680329F6D381685F
:100A8000C907F3D1A06A40F01000A062E06A40F00C
:100A90000100E062002084F82400012002B0B0BD13
:100AA000002002B0B0BD0000FEE7000043F2740079
:100AB000C2F2000000F0DCBA70470000EFF31080D3
:100AC00072B600BFFEE7000070B581B00022009250
:100AD00090F82420012A03D10221084601B070BDFC
:100AE0004A680123062A02EB820E80F8243007D8D8
:100AF000D0F800C06FF004030CF134060CE000BF26
:100B0000D0F800C00C2A87BF0CF12C066FF0400310
:100B10000CF130066FF022030EEB03021F23346842
:100B200003FA02F50B6824EA050503FA02F22A43E8
:100B30003260092B03EB43021AD9DCF80C601E3A31
:100B4000072589689540AE43914023F00102314367
:100B5000102ACCF80C1015D142F20041C4F2010168
:100B60008C4517D0816A41F02001816201210AE0A1
:100B7000DCF81030072689689640B343914019434A
:100B8000CCF810100021002280F82420084601B083
:100B900070BD00BF89680902F4D4DCF80810102B7E
:100BA00041F40001CCF80810ECD140F21001C2F27F
:100BB000000109684DF68362C4F21B32A1FB0212E8
:100BC000910C01EB81014900009100990029D9D0D5
:100BD00000990139009100990029D3D00099013979
:100BE000009100990029CDD0009901390091009918
:100BF0000029C7D0009901390091009900294FF0D0
:100C00000001E5D1BFE7000010B540F22804C2F2B0
:100C1000000401202070A068FFF726FD46F26663FD
:100C2000C4F20A034FF06632FFF71CFC0023C3F640
:100C300030730022FFF716FCFFF736FD606010BD31
:100C40007047000070470000002804BF0120704773
:100C5000B0B50446806A28B121688868C0070CD105
:100C600015E000BF0020E06284F82400204600F078
:100C700097F821688868C00709D0886820F00100CB
:100C8000886000F079FC21688A68D20726D1A06AC2
:100C9000C0063AD4A06A41F2021290430230A06228
:100CA000E069D4E9013240EA030C531EB3FA83F33E
:100CB0005D091346B2F5807F18BF2B02207D257B8E
:100CC00001284CEA45002CD135B3A56A45F0200532
:100CD000A562E56A45F00105E56222E0054602E00D
:100CE0008868C007D3D000F047FC401B2168032868
:100CF000F6D38868C007F3D0A06A40F01000A06265
:100D0000E06A40F00100E062A06AA06A40F01000D2
:100D1000A0620120B0BD00BFA56903EB4533A3F578
:100D2000C0534D68B2F5807F25F4694543EA050359
:100D30004B608B684FF2FD75CFF6E17503EA050352
:100D400043EA00038B6001D0012A07D12269002306
:100D5000CFF6F07303EB025201E000BF0022CB6A32
:100D600023F470031A43CA62896840F6FE62CFF624
:100D70001F721140814207D10020E062A16A012266
:100D800062F30101A162B0BDA06A40F0100020F042
:100D90000200A062E06A40F00100E0620120B0BD04
:100DA00070B586B0044640F60000C4F20100216828
:100DB00000F5E052002691420596CDE903660296C1
:100DC00002D006B070BD00BF41F21801C4F20201AA
:100DD0000A6842F400720A600A6802F40072019222
:100DE000019A0A6842F004020A60096801F00401ED
:100DF00001910199012102910321039102A900F0BF
:100E0000ADFA43F274050820C2F20005C4F20200F4
:100E10004FF40072C5E9000605F1100080214FF47F
:100E200000634FF0200C4FF4005E80E80C50284621
:100E3000C5E9026100F0ECF9002818BFFFF73EFE9B
:100E400025626C6206B070BDF0B581B0036842F6F1
:100E50000006C4F20106B34205D042F20046C4F2D5
:100E60000106B3420AD142F20443C4F201031B68F3
:100E700013F4702F02D0012001B0F0BD90F824309F
:100E8000012B03D1022001B0F0BD00BF0D460121AE
:100E9000174680F824100646FFF7AEFD30B100205B
:100EA00086F82400012001B0F0BD00BF42F20440EA
:100EB0003168B36AC4F20100324640F60176B343AA
:100EC00000F57F7603F58073B142936244D0906A57
:100ED00020F4801090624868400504D5906A012390
:100EE00063F30D309062936A0020DB044FF000033F
:100EF00044BFD36A23F00603D36282F82400106A49
:100F000040F6851340F6F116C0F60003C0F6000661
:100F100040F6D914C0F60004C0E90A366FF00203A7
:100F200004630B608B68144643F480738B604C3110
:100F30002A463B4600F0AEF92068816801F4602241
:100F40008168B2F5602F0CBF41F4A00141F480111B
:100F50008160002001B0F0BD036813F4702FB6D09B
:100F6000936A43F48013936200684005B6D4BAE7ED
:100F7000014690F82100022816D10868D1E90FC374
:100F8000026822F00E020260026822F00102026092
:100F9000012000FA03F2CCF8042081F8210000209F
:100FA000002281F82020704704208863012000225D
:100FB00081F820207047000090F82110022923D1E9
:100FC000026840F2040C1168C4F2020C21F00E0118
:100FD000116013682F21C4F202018A4223F0010339
:100FE000136015DD3023C4F202039A421CD044235F
:100FF000C4F202039A421BD05823C4F202039A425D
:101000001CD14FF4803321E004218163012070471B
:101010000823C4F202039A420ED01C23C4F2020336
:101020009A420BD1102311E04FF480730EE000BF01
:101030004FF480530AE000BF012307E00CF1680180
:101040004FF080738A4208BF4FF480130121CCF81F
:10105000003080F82110416B0022002980F8202008
:1010600004BF0020704780B58847002080BD000085
:1010700010B5D0E90FCE0168DCF800300A6823FA19
:101080000EF35C072AD512F0040427D00A689206F2
:1010900003D40A6822F004020A602F22C4F202027A
:1010A000914240F20402C4F202025BDD3023C4F23A
:1010B0000203994272D04423C4F20203994273D0CE
:1010C0005823C4F20203994240F07A804FF48023FF
:1010D0001360C16A002940F098806FE09C0727D513
:1010E00012F0020424D00A68920606D40A6822F09C
:1010F0000A020A60012280F821202F22C4F2020293
:10110000914240F20402C4F202023BDD3023C4F2F9
:101110000203994260D04423C4F2020399425FD093
:101120005823C4F20203994260D14FF4003365E0C2
:101130001B0743D512F0080208BF10BD0A6822F051
:101140000E020A60012101FA0EF2CCF8042081633C
:1011500080F82110016B0022002980F8202054D152
:101160002CE000BF0823C4F20203994222D01C23C2
:10117000C4F20203994223D140231360C16A0029BB
:1011800043D11BE00823C4F2020399422CD01C2354
:10119000C4F20203994229D120232FE04FF4806347
:1011A0001360C16A89BB09E04FF480431360C16AD0
:1011B00059BB03E004231360C16A31BB10BD00BFFB
:1011C00002F168044FF08063A14208BF4FF480032E
:1011D0001360C16AC9B9F1E74FF400730EE000BFB4
:1011E0004FF400530AE000BF022307E002F1680455
:1011F0004FF00073A14208BF4FF400131360816ADF
:101200000022002980F82020D8D0BDE810400847EF
:10121000014600284FF0010008BF70472DE9F04358
:10122000D1F800C04FF6F873CBF6FD734CF6CD4203
:101230006344CCF6CC42A3FB02236FF0030202EA24
:1012400093020023C4F2020301F10C08C1E90F323A
:101250000222D1E9019E98E8F00181F82120DCF812
:10126000002043F6F0739A4342EA090242EA0E0272
:1012700022432A4332433A4342EA0802CCF8002090
:1012800000228A6381F8210081F820200020BDE837
:10129000F043704790F820C0BCF1010F04BF02205A
:1012A0007047F0B54FF0010E80F820E090F821C0B3
:1012B000BCF1010F26D14FF0020C80F821C04FF095
:1012C000000CC0F838C0D0E900C4C56AC66BDCF8B1
:1012D0000070102C27F00107CCF80070006C0EFA9B
:1012E00000F070600846CCF8043004BF10460A468F
:1012F000CCF80800CCF80C20DCF8000045B140F038
:101300000E000DE0002180F820100220F0BD00BF8B
:1013100020F00400CCF80000DCF8000040F00A00E7
:10132000CCF80000DCF8000040F00100CCF8000030
:101330000020F0BDB0B5044600F01EF9054640F2AD
:101340000800C2F200000078611C18BF044400BF0E
:1013500000F012F9401BA042FAD3B0BD2DE9F04FC6
:1013600082B00E68002E00F0FD8041F20042C4F20F
:101370000102042340F2004E904208BF03234FF6BF
:10138000FF7CC4F2010E009300240123C1F2100C73
:101390004FF0000A4FF000094BE000BF41F200029D
:1013A000C4F20102009F904208BF022704F00C0320
:1013B0000F229A402BEA020207FA03F34FEA9A053A
:1013C0001A4346F825204E6840F20C45F202DEF83A
:1013D000082054BF22EA080242EA0802C4F20105CA
:1013E000CEF808202A68B30254BF22EA080242EA73
:1013F00008022A60B303DEF8042054BF22EA080280
:1014000042EA0802F303CEF80420DEF800204FF091
:10141000010354BF22EA080242EA0802CEF8002083
:101420000E680AF1010A36FA0AF204F1040400F027
:10143000998003FA0AFB16EA0B08F1D04E6866455C
:1014400012DC122E56D8DFE806F0350B4D49555503
:10145000555555555555555555555545510000BF90
:10146000D1F80C9046E000BF4FF6FF72C1F22102A6
:1014700096420FDC0022C1F2110296421AD00022DD
:10148000C1F21202964215D00022C1F22102964208
:1014900010D02FE00022C1F2220296420AD0002290
:1014A000C1F23102964205D00022C1F232029642C8
:1014B00020D100BF8A684AB1012A14BFC0F814B015
:1014C000C0F810B04FF0080914E000BF4FF0040955
:1014D00010E000BFCA6802F104090BE04FF00009F8
:1014E00008E000BFCA6802F1080903E0CA6802F117
:1014F0000C0900BF02462646B8F5807F24BF04329F
:10150000203E17680F25B54027EA050509FA06F6BB
:1015100035431560CA79D2067FF582AF41F21803D0
:10152000C4F202031A68AEF57E7642F001021A6038
:101530001A6802F001020192019A2AF0030256F899
:1015400002B040F60002C4F20102904208D040F618
:101550000042C4F2010290427FF420AF012725E748
:10156000002723E702B0BDE8F08F0000002A08BF83
:10157000090401617047000043F2A010C2F20000AC
:101580000068704740F2080043F2A011C2F2000068
:10159000C2F2000100780A68104408607047000039
:1015A00080B542F20000C4F20200016841F010016F
:1015B0000160032000F08CF80F2000F005F800F027
:1015C00027F8002080BD000070B540F20806C2F286
:1015D000000640F210013278C2F200014FF47A7333
:1015E0000968B3FBF2F20446B1FBF2F1084600F0E1
:1015F00099FD0F2C4FF0010508D838B94FF0FF3096
:1016000021460022002500F037F87460284670BD9E
:1016100082B041F21800C4F202000168022241F0D7
:1016200001010160016801F0010101910199416826
:1016300041F080514160406800F080500090009877
:101640000420C4F20100016862F31A61016002B073
:1016500070470000002848BF704700F01F010122BA
:1016600002FA01F11C2202EAD0004EF20012CEF280
:10167000000281507047000010B54EF60C5CCEF2AF
:10168000000CDCF80030C3F3022E8EF00704042CAB
:1016900028BF0424BEF103034FF0FF3E0EFA04F40A
:1016A00038BF0023A14399400EFA03F39A43114334
:1016B00000F00F0200F160430901043A03F56443AE
:1016C0006244002848BF02F10C03197010BD0000ED
:1016D0004EF60C51CEF200010A684FF6FF031A4095
:1016E00060F30A2242F0806040F0FD7008607047AD
:1016F0002DE9F04182B00446007841F21C06C00793
:10170000C4F202064AD030685FEAC00808D43068E4
:1017100040F080503060306800F0805001900198B7
:1017200047F20007C4F200073868C00512D43868D1
:1017300040F480703860FFF71FFF05463868C00529
:1017400008D4FFF719FF401B6428F7D9032002B023
:10175000BDE8F081706810F4407012D0616801F447
:10176000407188420DD0706840F24042C4F242227B
:10177000012320F4407113600023C00713607160DF
:1017800026D17068616820F440700843B8F1000FFA
:10179000706003D4306820F080503060206881078A
:1017A00007D556F8181CA26821F44041114346F8A9
:1017B000181CC00607D556F8180CE16820F4800004
:1017C000084346F8180C002002B0BDE8F08100BFC5
:1017D000FFF7D2FE054641F2883700BF70688007E8
:1017E000CFD4FFF7C9FE401BB8424FF00300F5D934
:1017F000EAE70000002804BF012070472DE9F0430C
:1018000081B042F20008C4F202080446D8F8000091
:101810000D4600F0070081420CD9D8F8000020F0F6
:1018200007002843C8F80000D8F8000000F00700BF
:10183000A8426CD1206841F204098107C4F2020970
:1018400017D5410705D5D9F8001041F4E061C9F872
:101850000010010705D5D9F8001041F46051C9F80E
:101860000010D9F80010A26821F0F0011143C9F866
:101870000010C00742D1D8F8000000F007008542F0
:101880000CD2D8F8000020F007002843C8F8000068
:10189000D8F8000000F00700A84238D120684107BE
:1018A00007D5D9F80010E26821F4E0611143C9F8C6
:1018B0000010000708D5D9F80000216920F4605015
:1018C00040EAC100C9F80000D9F8002002F00C007D
:1018D000082841F20020C0F27A004DD148F2986306
:1018E000C2F38341C0F60003595CD20338D440F6FA
:1018F0000010C0F23D0048433EE000BF606859F868
:10190000041C022808D0012826D1890306D401200E
:1019100001B0BDE8F08300BF8901F8D5D9F8001007
:1019200021F003010843C9F80000FFF725FE064631
:1019300041F28837D9F80000616800F00C00B0EB84
:10194000810F98D0FFF718FE801BB842F2D9032010
:1019500001B0BDE8F08300BF8907D8D5DEE700BF3E
:10196000D9F8002047F28623C2F34042C0F60003B4
:101970009A5C4843B0FBF2F0D9F8001047F26E22AF
:10198000C1F30311C0F60002515C40F2100220FACC
:1019900001F140F20C00C2F200000068C2F2000245
:1019A0001160FFF711FE002001B0BDE8F0830000D8
:1019B00040F2100041F20401C2F20000C4F2020140
:1019C0000068096847F27E22C1F30221C0F60002D6
:1019D000515CC8407047000040F2100041F2040121
:1019E000C2F20000C4F202010068096847F27E22D8
:1019F000C1F3C221C0F60002515CC840704700002C
:101A0000002804BF012070472DE9F04182B0044650
:101A1000007841F20006C007C4F202060CD07068DC
:101A200000F00C00042840F081803068800303D56A
:101A30006068002800F04681207880071BD5706818
:101A400010F00C0F09D0706800F00C00082840F06E
:101A500087807068C00300F183803068800703D5F9
:101A60002069012840F02E813068616920F0F8007B
:101A700040EAC10030602078000713D42078400786
:101A80002CD4E569002D00F01881706800F00C007E
:101A9000082840F0A780012D40F00481012002B009
:101AA000BDE8F081A069002800F084800020C4F225
:101AB00042200121C0F88014FFF75EFD054600BFFB
:101AC000706A800700F1B280FFF756FD401B0228C4
:101AD000F6D9032002B0BDE8F08100BFF0695FEAEB
:101AE000C00808D4F06940F08050F061F06900F05F
:101AF00080500090009847F20007C4F20007386851
:101B0000C00549D4386840F480703860FFF734FD70
:101B1000054600BF3868C0053ED4FFF72DFD401BC9
:101B20006428F7D9032002B0BDE8F081706800F0A6
:101B30000C00082803D17068C0033FF576AF6168D8
:101B40003068002900F00C81B1F5A02F00F0008171
:101B5000B1F5803F40F01A8140F480301CE100BFB5
:101B60002069002840F20000C4F2422000F0888082
:101B700001210160FFF700FD054600BF30688007C6
:101B80003FF572AFFFF7F8FC401B0228F6D903209F
:101B900002B0BDE8F08100BFE168306A002900F0C2
:101BA0009D80052900F09280012940F0AF8040F02F
:101BB0000100B1E00020C4F242200021C0F88014EE
:101BC000FFF7DAFC054600BF706A80077FF556AF65
:101BD000FFF7D2FC401B0228F6D9032002B0BDE873
:101BE000F08100BF0027C4F2422700203866FFF7CB
:101BF000C3FC022D05460DD13068800140F1DE8026
:101C0000FFF7BAFC401B02284FF00300F4D902B0E2
:101C1000BDE8F081306880014FD5FFF7ADFC401B77
:101C200002284FF00300F5D9F1E700BF40F21000A1
:101C3000C2F20000006844F6D351C1F26201A0FB79
:101C40000101480A019000BF00BF0198411E002811
:101C500001913FF413AF00BF0198411E002801918C
:101C60003FF40CAF00BF0198411E002801913FF4E2
:101C700005AF00BF0198411E00280191E4D1FDE6A7
:101C800000210160FFF778FC054600BF306880073F
:101C90007FF5F1AEFFF770FC401B02284FF0030008
:101CA000F4D9B4E77068216A00F480328A4209D11D
:101CB000616A00F47010884204D1002002B0BDE8CF
:101CC000F08100BF012002B0BDE8F08140F00400C7
:101CD0003062306A40F001001EE000BF20F00100D9
:101CE0003062306A20F004003062FFF745FC0546A0
:101CF00041F28837306A800720D5FFF73DFC401B52
:101D0000B8424FF00300F5D981E700BF20F0010091
:101D10003062306A20F004003062FFF72DFC054687
:101D200041F28837306A800708D4FFF725FC401B52
:101D3000B842F7D9032002B0BDE8F081B8F1000F36
:101D40003FF59FAEF06920F08050F06199E600BF4A
:101D500040F480203060306840F480301CE000BFE8
:101D600020F480303060306820F480203060FFF74D
:101D700003FC0546306880037FF55EAEFFF7FCFB91
:101D8000401B64284FF00300F4D940E720F4803072
:101D90003060306820F480203060FFF7EDFB0546AE
:101DA000306880033FF548AEFFF7E6FB401B642830
:101DB000F6D9032002B0BDE8F08100BF206AB0F57B
:101DC000803F05D17168A26821F400311143716030
:101DD0007168626A21F47411114308437060012034
:101DE0003866FFF7C9FB0446306880013FF565AFF0
:101DF000FFF7C2FB001B02284FF00300F4D906E7EF
:101E000070B528B1416A29B100210161142106E0B1
:101E1000012070BD4168B1F5827F02D01C210022F3
:101E200042500026866290F8511029B980F850601F
:101E3000054600F039F82846022180F8511090E854
:101E40002E0002F482720C6803F4044324F0400470
:101E50000C601A4405F4006305691A4405F0020396
:101E600045691A4405F001038569C4691A4405F4FB
:101E700000731A4404F03803046A1A4404F080031F
:101E8000846A1A4304F400531A430A60042202EAE3
:101E900015424A60CA6922F40062CA61012146659E
:101EA00080F85110304670BD70B586B040F60044E1
:101EB000C4F201040068A4F5544100268842059646
:101EC000CDE90366029601D006B070BD41F218005C
:101ED000C4F20200416802AD41F4804141604168B2
:101EE00001F4804101910199016841F0080101600C
:101EF0000068294600F00800019001984FF4204046
:101F0000029002200390032005902046FFF726FA56
:101F10004FF48040CDE90206204629460496FFF79B
:101F20001DFA06B070BD00002DE9F04182B01D46DB
:101F300016460F460446FFF71FFB94F8511001297F
:101F40000ED18046002F4FF0010018BF002E03D1A4
:101F500002B0BDE8F08100BF94F85000012803D121
:101F6000022002B0BDE8F081012084F85000032077
:101F7000002184F8510061652763A686E686A16387
:101F8000A187E187A0682164B0F5004F20686164F3
:101F900007D1016821F040010160016841F48041EE
:101FA00001600168490603D4016841F04001016005
:101FB0006168731EE268B1FA81F1B3FA83F34909EB
:101FC0005B09B2F5006F41EA030139D131B137F84D
:101FD000021BC1602763E08E0138E086E08E002896
:101FE00070D0681C0BD11AE0216B31F8022BC26053
:101FF0002163E08E0138E086E08E002862D0206800
:1020000081688907F0D4FFF7B7FAA0EB0800A8426F
:10201000F2D338E0FFF7B0FAE08E002852D0206803
:1020200081688907F6D5216B31F8022BC2602163E4
:10203000E08E0138E086E08E0028F0D142E000BF5B
:1020400039B139780173206B01302063E08E01389B
:10205000E086E08EB0B3681C0BD123E0216B0978D9
:102060000173206B01302063E08E0138E086E08E42
:1020700040B3206881688907F0D4FFF77DFAA0EBB0
:102080000800A842F3D3012084F85100002084F80E
:102090005000032002B0BDE8F08100BFFFF76CFAEA
:1020A000E08E78B1206881688907F7D5216B0978BF
:1020B0000173206B01302063E08E0138E086E08EF2
:1020C0000028EFD12046022101222B46CDF80080C6
:1020D00002F096FC40B92046802100222B46CDF824
:1020E000008002F08DFC28B1606D40F0200060653A
:1020F00020206065A06838B9002001902068C16880
:102100000191806801900198012084F8510000201D
:1021100084F85000606D002818BF012002B0BDE8AF
:10212000F0810000411E0020B0EB116F1CBF0120A8
:1021300070474EF21002CEF2000251604EF623516B
:10214000CEF20001F0230B70072190601160704700
:1021500090F83C20012A4FF0020236D010B580F8EA
:102160003D200268D2F804E0D2F808C00C682EF0D6
:102170007003234340F2FF74C4F20004A242536090
:102180000ADCB2F1804F13D040F20043C4F20003E6
:102190009A420DD011E000BF42F60043C4F20103A1
:1021A0009A4205D040F60003C4F200039A4204D1DB
:1021B00049682CF08003194391600121002280F8C6
:1021C0003D1080F83C20BDE81040104670470000EC
:1021D000002804BF0120704710B590F83D1031B9B8
:1021E000002180F83C10044600F070F820460221DF
:1021F00080F83D10016840F2FF740B68C4F20004DF
:1022000042F6004CA142C4F2010C15DCB1F1804F42
:102210001AD040F20042C4F20002914214D0A1420E
:1022200018DCB1F1804F1DD040F20042C4F2000230
:10223000914217D01AE000BF614505D040F6000278
:10224000C4F200029142EAD1826823F07003134382
:10225000A142E6DD614505D040F60002C4F200026D
:10226000914203D1026923F440731343846923F03C
:102270008002D0F804E0C368224361450A60CB6263
:10228000C1F828E002D14269CCF8302001224A612D
:102290000B69DB0703D00B6923F001030B6180F8A6
:1022A000462080F83E2080F83F2080F8402080F8CB
:1022B000412080F8422080F8432080F8442080F8B4
:1022C000452080F83D20002010BD0000006840F24D
:1022D0000041C4F20001884218BF704781B041F24A
:1022E0001C00C4F20200016841F0020101600068B4
:1022F00000F002000090009801B0704790F83D1087
:1023000001291CBF01207047022180F83D100068A0
:1023100040F2FF71C4F20001884209DCB0F1804F45
:1023200012D040F20041C4F2000188420CD012E009
:1023300042F60041C4F20101884205D040F6000196
:10234000C4F20001884206D1816801F00701062924
:1023500004BF00207047016841F0010101600020C6
:102360007047000090F83C20012A4FF002026CD028
:1023700080B580F83D20D0F800C04FF67772DCF8C9
:10238000083023EA0202CCF808200B684F2B29DC26
:102390001F2B45DD202B46D0302B44D0402B40F066
:1023A000AF80D1F804E0C968DCF82030DCF82020E8
:1023B00022F00102CCF82020DCF8182022F0F002F4
:1023C00042EA011123F00A0242EA0E02CCF8181088
:1023D000CCF82020DCF8081041F0470121F0300152
:1023E00028E000BF6F2B33DDB3F5005F74D0B3F589
:1023F000805F21D0702B40F08380D1E901E3C96870
:10240000DCF8082043EA0E0322F47F4243EA01216C
:102410001143CCF80810DCF8081041F0770109E00E
:102420000BB1102B6CD1DCF8081021F070011943AE
:1024300041F00701CCF808100022012180F83D107E
:10244000002180F83C10BDE880401046704700BF76
:10245000502B21D0602B53D1D1F804E0C968DCF8AF
:102460002030DCF8202022F01002CCF82020DCF80C
:10247000182022F4704242EA013123F0A00242EA1D
:102480000E12CCF81810CCF82020DCF8081041F01F
:10249000670121F01001CDE7D1F804E0C968DCF84C
:1024A0002030DCF8202022F00102CCF82020DCF8DB
:1024B000182022F0F00242EA011123F00A0242EA57
:1024C0000E02CCF81810CCF82020DCF8081041F0EF
:1024D000570121F02001ADE7D1E901E3C968DCF83B
:1024E000082043EA0E0322F47F4243EA012111430C
:1024F000CCF80810DCF8081041F480419AE700BFDE
:1025000001229AE77047000070470000B0B582B022
:1025100001680A68CC684B6902F02F05202D04F091
:10252000200505D125B102B0BDE8B04002F004BBE2
:102530005FEA027C1EBF03F0010E04F4907313EBFC
:102540000E0341D1036BD50618D5012B16D114F01B
:10255000100313D0002201920A6801924A68019286
:10256000019A496949064BD4818DC28DC38D002BD8
:1025700018BF914240F0F48102B0B0BD13062DD5D2
:1025800014F080032AD090F84120212AF4D18268E7
:10259000B2F5805F03D10269002A00F06782026A07
:1025A000531C036212784A60C28C013A1304C2843D
:1025B000E2D1C86820F08000C860C86840F04000E0
:1025C000C86002B0B0BD00BFD30718BF14F4807359
:1025D00040F0D080530700F1D380D8E05206CBD52D
:1025E00014F04002C8D0CA6822F04002CA6020211C
:1025F00080F8411002B0BDE8B04000F0C5BB00BF9C
:10260000C16B0A68526893B2002BB5D0858DAB427E
:10261000B2D2C2858969202900F0A180016851E801
:10262000031F026821F4807142E80313DBB10168E3
:1026300051E8031F026821F4807142E8031393B14B
:10264000016851E8031F026821F4807142E8031316
:102650004BB1016851E8031F026821F4807142E820
:102660000313002BDAD1016851E8051F026821F03D
:10267000010142E80513C3B3016851E8051F026870
:1026800021F0010142E805137BB3016851E8051F01
:10269000026821F0010142E8051333B3016851E8F3
:1026A000051F026821F0010142E80513002BDAD171
:1026B0001BE000BF016851E8051F026821F04001DE
:1026C00042E80513DBB1016851E8051F026821F0FB
:1026D000400142E8051393B1016851E8051F026803
:1026E00021F0400142E805134BB1016851E8051F94
:1026F000026821F0400142E80513002BDAD12021C5
:1027000080F8421000210163016851E8031F02684C
:1027100021F0100142E80313DBB1016851E8031F07
:10272000026821F0100142E8031393B1016851E8F7
:10273000031F026821F0100142E803134BB1016846
:1027400051E8031F026821F0100142E80313002B37
:10275000DAD1C16B04460846FEF70AFC2046022186
:102760004163818DC28D891A89B202B0BDE8B04043
:10277000FFF7C8BE436C43F001034364530706D51B
:10278000BEF1000F03D0436C43F002034364930790
:1027900006D5BEF1000F03D0436C43F0040343643D
:1027A000BCF1000F06D55EEA050303D0436C43F08D
:1027B00008034364436C002B3FF4DEAE920605D55C
:1027C00025B1044602F0B8F9216820464969426CF7
:1027D00001F0400102F00802891800F0B98000BF42
:1027E000016851E8031F026821F4907142E8031365
:1027F000BBB3016851E8031F026821F4907142E8FD
:10280000031373B3016851E8031F026821F4907148
:1028100042E803132BB3016851E8031F026821F457
:10282000907142E80313002BDAD11AE0016851E8F5
:10283000051F026821F0010142E80513DBB10168C0
:1028400051E8051F026821F0010142E8051393B128
:10285000016851E8051F026821F0010142E80513F3
:102860004BB1016851E8051F026821F0010142E8FF
:102870000513002BDAD1016B012924D1016851E83D
:10288000031F026821F0100142E80313DBB1016865
:1028900051E8031F026821F0100142E8031393B1CD
:1028A000016851E8031F026821F0100142E8031398
:1028B0004BB1016851E8031F026821F0100142E8A2
:1028C0000313002BDAD1202180F84210002101638C
:1028D00001684969490640F1C380016851E8051F54
:1028E000026821F0400142E80513DBB1016851E8BC
:1028F000051F026821F0400142E8051393B1016809
:1029000051E8051F026821F0400142E805134BB170
:10291000016851E8051F026821F0400142E80513F3
:10292000002BDAD1C16B002900F09A8044F62D32D9
:10293000C0F60002044608464A63FEF73DFB002845
:102940003FF41AAEE06B416B02B0BDE8B0400847FF
:102950000446FFF7D9FD0020606402B0B0BD00BF9F
:10296000891A00BF026852E8032F036822F49072AC
:1029700043E80325BDB3026852E8032F036822F43D
:10298000907243E8032575B3026852E8032F036889
:1029900022F4907243E803252DB3026852E8032F16
:1029A000036822F4907243E80325002DDAD11AE07F
:1029B000026852E8052F036822F0010243E805256A
:1029C000DDB1026852E8052F036822F0010243E8F6
:1029D000052595B1026852E8052F036822F001022F
:1029E00043E805254DB1026852E8052F036822F03F
:1029F000010243E80525002DDAD1202280F842208B
:102A000000220263026852E8032F036822F01002DA
:102A100043E80325DDB1026852E8032F036822F082
:102A2000100243E8032595B1026852E8032F0368BA
:102A300022F0100243E803254DB1026852E8032F4B
:102A4000036822F0100243E80325002DDAD10222A8
:102A500089B2426302B0BDE8B040FFF753BD00BF8A
:102A600002B0BDE8B040FFF74FBD00BF026A32F8C8
:102A7000023B6FF35F234B60026295E5002804BFC1
:102A80000120704710B5044690F8410028B9002095
:102A900084F84000204600F063F8242084F84100C8
:102AA0002068D4E90212C36823F40053C3600369A9
:102AB00023F440531A430261D4E904231143C2684A
:102AC000194341F20C639A431143C1604169A26901
:102AD00021F44071114343F60002C4F20102904216
:102AE000416103D0FEF764FF02E000BFFEF774FF10
:102AF000D4E90023192148439900B0FBF1F048F2D2
:102B00001F5CC5F2EB1CA0FB0C314FF69C7349090E
:102B1000C0F6FF7301FB0300322303EB0010A0FBA0
:102B20000C03F02000EA531000EB0110C3F3431133
:102B3000084490601069202120F490401061506991
:102B400020F02A005061D06840F40050D06000208E
:102B5000606484F8411084F84210606310BD000086
:102B600070B586B040F60004C4F20104006804F5B4
:102B70004051002688420596CDE90366029601D0B1
:102B800006B070BD41F21800C4F20200016802AD47
:102B900041F480410160016801F480410191019993
:102BA000016841F0040101600068294600F004005A
:102BB000019001984FF400700290022003900320CE
:102BC00005902046FEF7CAFB4FF48060CDE902066F
:102BD000204629460496FEF7C1FB2520002100224D
:102BE000FEF74AFD2520FEF735FD06B070BD00005A
:102BF000704700002DE9F04381B0044690F8410091
:102C0000202809D100294FF0010018BF002A07D160
:102C100001B0BDE8F08300BF022001B0BDE8F08341
:102C20000020606421201D460E4684F841001746AE
:102C3000FEF7A2FCA784E784A1688146B1F5805F16
:102C400002D1206900285DD037460020E28C21683F
:102C5000002A5DD06A1C24D0002D4AD0804600BFD7
:102C60000868000608D4FEF787FCA0EB0900A8421C
:102C70007AD82168C868F3E717B117F8010B04E0A8
:102C800038F8020B00276FF35F204860E08C0138B2
:102C9000E084E08C0028E3D13AE000BF0A68120625
:102CA00009D40A68120606D40A6812065CBF0A68CC
:102CB0005FEA0262F2D51FB117F8012B05E000BFF1
:102CC00030F8022B00276FF35F224A60E28C013A52
:102CD000E284E28C002AE4D11AE000BF30F8022B33
:102CE00000276FF35F224A60E28C013AE284E28CB3
:102CF00072B10A68120635D5002FEFD017F8012BF4
:102D0000F1E700BF00273046E28C2168002AA1D1FC
:102D1000086840061ED42DB3681C14D1086840060C
:102D20002AD40868400627D40868400624D40868D6
:102D300040064FF00000F1D50DE000BF2068C168EB
:102D40000068400618D4FEF717FCA0EB0900A84263
:102D5000F4D909E00020202184F8411001B0BDE839
:102D6000F08300BFFEF708FC0320202184F8411007
:102D700001B0BDE8F08300BF0020202184F841109D
:102D800001B0BDE8F083000070470000FEE70000DE
:102D90002DE9F04F81B040F21809C2F200098346D4
:102DA000B9F80200B9F804100138013940F60044BE
:102DB00082B28BB200200021C4F2010401F01CFB9E
:102DC00020464FF400610022FEF7D0FB20464FF46E
:102DD00080610122FEF7CAFBB9F80400002842D046
:102DE0000DF10208B9F8021043F2B80608F1010724
:102DF0004FF0000AC2F2000605E000BF00210AF110
:102E0000010A82452FD20029F8D0002520464FF430
:102E100000610022ADF802B0FEF7A8FB20464FF497
:102E200080610122FEF7A2FB3046394601224FF0B5
:102E3000FF33FFF779F83046414601224FF0FF3368
:102E4000FFF772F820464FF400610122FEF78EFB77
:102E5000B9F8021001358D42D8D3B9F804000AF14F
:102E6000010A8245CFD320464FF400610122FEF7CC
:102E70007DFB01B0BDE8F08FB0B582B040F2180024
:102E8000C2F200002B21C1812C21C0F22A01C0F81E
:102E90000A10F021C0F2401140F60044C0F80210C0
:102EA0003620C4F201048DF8060020464FF400617C
:102EB0000022FEF75BFB20464FF480610022FEF704
:102EC00055FB43F2B805C2F200050DF10601284694
:102ED00001224FF0FF33FFF727F820464FF400613F
:102EE0000122FEF743FB08208DF8070020464FF42F
:102EF00000610022FEF73AFB20464FF48061012278
:102F0000FEF734FB0DF10701284601224FF0FF3395
:102F1000FFF70AF820464FF400610122FEF726FB76
:102F200002B0B0BD2DE9F04F81B040F60044C4F2CC
:102F3000010420464FF4805100224FF0000BFEF7B1
:102F400015FB64206426FEF7F5F920464FF4805106
:102F50000122FEF70BFB6420FEF7ECF96420FEF77C
:102F6000E9F9CF208DF8030020464FF400610022DC
:102F7000FEF7FCFA20464FF480610022FEF7F6FAD5
:102F800043F2B805C2F200050DF103012846012203
:102F90004FF0FF33FEF7C8FF20464FF400610122D7
:102FA000FEF7E4FA20464FF4006100228DF803B0EA
:102FB000FEF7DCFA20464FF480610122FEF7D6FAD4
:102FC0000DF10301284601224FF0FF33FEF7ACFF5D
:102FD00020464FF400610122FEF7C8FAD9208DF88F
:102FE000030020464FF400610022FEF7BFFA20469E
:102FF0004FF480610122FEF7B9FA0DF10301284672
:1030000001224FF0FF33FEF78FFF20464FF400619F
:103010000122FEF7ABFA30208DF8030020464FF472
:1030200000610022FEF7A2FA20464FF480610122DF
:10303000FEF79CFA0DF10301284601224FF0FF3301
:10304000FEF772FF20464FF400610122FEF78EFA70
:10305000ED208DF8030020464FF400610022FEF7BA
:1030600085FA20464FF480610022FEF77FFA0DF1C9
:103070000301284601224FF0FF33FEF755FF20469B
:103080004FF400610122FEF771FA20464FF400610F
:1030900000228DF80360FEF769FA20464FF4806144
:1030A0000122FEF763FA0DF10301284601224FF0D9
:1030B000FF33FEF739FF20464FF400610122FEF78F
:1030C00055FA03208DF8030020464FF400610022DA
:1030D000FEF74CFA20464FF480610122FEF746FAD3
:1030E0000DF10301284601224FF0FF33FEF71CFFCC
:1030F00020464FF400610122FEF738FA12272046DD
:103100004FF4006100228DF80370FEF72FFA20467D
:103110004FF480610122FEF729FA0DF103012846E0
:1031200001224FF0FF33FEF7FFFE20464FF400610F
:103130000122FEF71BFA81208DF8030020464FF490
:1031400000610022FEF712FA20464FF4806101224E
:10315000FEF70CFA0DF10301284601224FF0FF3370
:10316000FEF7E2FE20464FF400610122FEF7FEF971
:10317000E8208DF8030020464FF400610022FEF79E
:10318000F5F920464FF480610022FEF7EFF90DF1CA
:103190000301284601224FF0FF33FEF7C5FE20460B
:1031A0004FF400610122FEF7E1F985208DF803005C
:1031B00020464FF400610022FEF7D8F920464FF474
:1031C00080610122FEF7D2F90DF1030128460122A8
:1031D0004FF0FF33FEF7A8FE20464FF400610122B6
:1031E000FEF7C4F910208DF8030020464FF400616B
:1031F0000022FEF7BBF920464FF480610122FEF762
:10320000B5F90DF10301284601224FF0FF33FEF717
:103210008BFE20464FF400610122FEF7A7F97A20C9
:103220008DF8030020464FF400610022FEF79EF95E
:1032300020464FF480610122FEF798F90DF1030159
:10324000284601224FF0FF33FEF76EFE20464FF472
:1032500000610122FEF78AF9CB208DF80300204699
:103260004FF400610022FEF781F920464FF480619F
:103270000022FEF77BF90DF10301284601224FF0F1
:10328000FF33FEF751FE20464FF400610122FEF7A6
:103290006DF939208DF8030020464FF400610022BB
:1032A000FEF764F920464FF480610122FEF75EF9D3
:1032B0000DF10301284601224FF0FF33FEF734FEE3
:1032C00020464FF400610122FEF750F92C208DF8C2
:1032D000030020464FF400610022FEF747F9204624
:1032E0004FF480610122FEF741F90DF103012846F8
:1032F00001224FF0FF33FEF717FE20464FF4006126
:103300000122FEF733F920464FF4006100228DF8C8
:1033100003B0FEF72BF920464FF480610122FEF73F
:1033200025F90DF10301284601224FF0FF33FEF786
:10333000FBFD20464FF400610122FEF717F934200F
:103340008DF8030020464FF400610022FEF70EF9CD
:1033500020464FF480610122FEF708F90DF10301C8
:10336000284601224FF0FF33FEF7DEFD20464FF4E2
:1033700000610122FEF7FAF802208DF803002046D2
:103380004FF400610022FEF7F1F820464FF480610F
:103390000122FEF7EBF80DF10301284601224FF060
:1033A000FF33FEF7C1FD20464FF400610122FEF716
:1033B000DDF8F7208DF8030020464FF4006100226D
:1033C000FEF7D4F820464FF480610022FEF7CEF8D5
:1033D0000DF10301284601224FF0FF33FEF7A4FD53
:1033E00020464FF400610122FEF7C0F820208DF83E
:1033F000030020464FF400610022FEF7B7F8204694
:103400004FF480610122FEF7B1F80DF10301284667
:1034100001224FF0FF33FEF787FD20464FF4006195
:103420000122FEF7A3F8EA208DF8030020464FF4AE
:1034300000610022FEF79AF820464FF480610022D6
:10344000FEF794F80DF10301284601224FF0FF33F7
:10345000FEF76AFD20464FF400610122FEF786F870
:1034600020464FF4006100228DF803B0FEF77EF88D
:1034700020464FF480610122FEF778F80DF1030138
:10348000284601224FF0FF33FEF74EFD20464FF451
:1034900000610122FEF76AF820464FF40061002225
:1034A0008DF803B0FEF762F820464FF480610122E8
:1034B000FEF75CF80DF10301284601224FF0FF33BF
:1034C000FEF732FD20464FF400610122FEF74EF870
:1034D000C0208DF8030020464FF400610022FEF763
:1034E00045F820464FF480610022FEF73FF80DF1C9
:1034F0000301284601224FF0FF33FEF715FD204659
:103500004FF400610122FEF731F81B208DF8030013
:1035100020464FF400610022FEF728F820464FF4C1
:1035200080610122FEF722F80DF1030128460122F5
:103530004FF0FF33FEF7F8FC20464FF40061012204
:10354000FEF714F8C1208DF8030020464FF4006107
:103550000022FEF70BF820464FF480610022FEF7B0
:1035600005F80DF10301284601224FF0FF33FEF765
:10357000DBFC20464FF400610122FDF7F7FF2046F7
:103580004FF4006100228DF80370FDF7EFFF204635
:103590004FF480610122FDF7E9FF0DF10301284698
:1035A00001224FF0FF33FEF7BFFC20464FF40061CD
:1035B0000122FDF7DBFFC5208DF8030020464FF404
:1035C00000610022FDF7D2FF20464FF48061002207
:1035D000FDF7CCFF0DF10301284601224FF0FF3328
:1035E000FEF7A2FC20464FF400610122FDF7BEFF6A
:1035F000082620464FF4006100228DF80360FDF795
:10360000B5FF20464FF480610122FDF7AFFF0DF1B9
:103610000301284601224FF0FF33FEF785FC2046C8
:103620004FF400610122FDF7A1FF4FF0260820466C
:103630004FF4006100228DF80380FDF797FF2046CC
:103640004FF480610122FDF791FF0DF1030128463F
:1036500001224FF0FF33FEF767FC20464FF4006174
:103660000122FDF783FFC7208DF8030020464FF4A9
:1036700000610022FDF77AFF20464FF480610022AE
:10368000FDF774FF0DF10301284601224FF0FF33CF
:10369000FEF74AFC20464FF400610122FDF766FF69
:1036A000B7208DF8030020464FF400610022FDF79B
:1036B0005DFF20464FF480610122FDF757FF0DF1B9
:1036C0000301284601224FF0FF33FEF72DFC204670
:1036D0004FF400610122FDF749FF36208DF8030009
:1036E00020464FF400610022FDF740FF20464FF4D2
:1036F00080610022FDF73AFF0DF103012846012207
:103700004FF0FF33FEF710FC20464FF4006101221A
:10371000FDF72CFF20464FF4006100228DF8036076
:10372000FDF724FF20464FF480610122FDF71EFFC4
:103730000DF10301284601224FF0FF33FEF7F4FBA1
:1037400020464FF400610122FDF710FF3A208DF86A
:10375000030020464FF400610022FDF707FF2046DA
:103760004FF480610022FDF701FF0DF103012846AF
:1037700001224FF0FF33FEF7D7FB20464FF40061E4
:103780000122FDF7F3FE55208DF8030020464FF48B
:1037900000610022FDF7EAFE20464FF4806101221D
:1037A000FDF7E4FE0DF10301284601224FF0FF333F
:1037B000FEF7BAFB20464FF400610122FDF7D6FE6A
:1037C000B1208DF8030020464FF400610022FDF780
:1037D000CDFE20464FF480610022FDF7C7FE0DF1BB
:1037E0000301284601224FF0FF33FEF79DFB2046E0
:1037F0004FF400610122FDF7B9FE20464FF400614D
:1038000000228DF803B0FDF7B1FE20464FF4806131
:103810000122FDF7ABFE0DF10301284601224FF016
:10382000FF33FEF781FB20464FF400610122FDF7D4
:103830009DFE1A2620464FF4006100228DF8036099
:10384000FDF794FE20464FF480610122FDF78EFEC5
:103850000DF10301284601224FF0FF33FEF764FB10
:1038600020464FF400610122FDF780FEB6208DF85E
:10387000030020464FF400610022FDF777FE20464A
:103880004FF480610022FDF771FE0DF1030128461F
:1038900001224FF0FF33FEF747FB20464FF4006153
:1038A0000122FDF763FE0A2720464FF40061002243
:1038B0008DF80370FDF75AFE20464FF48061012217
:1038C000FDF754FE0DF10301284601224FF0FF33AE
:1038D000FEF72AFB20464FF400610122FDF746FE69
:1038E000A2208DF8030020464FF400610022FDF76E
:1038F0003DFE20464FF480610122FDF737FE0DF1B9
:103900000301284601224FF0FF33FEF70DFB20464E
:103910004FF400610122FDF729FEF2208DF803002B
:1039200020464FF400610022FDF720FE20464FF4B0
:1039300080610022FDF71AFE0DF1030128460122E5
:103940004FF0FF33FEF7F0FA20464FF400610122FA
:10395000FDF70CFE20464FF4006100228DF803B005
:10396000FDF704FE20464FF480610122FDF7FEFDC5
:103970000DF10301284601224FF0FF33FEF7D4FA80
:1039800020464FF400610122FDF7F0FD20464FF480
:10399000006100228DF80380FDF7E8FD20464FF41A
:1039A00080610022FDF7E2FD0DF1030128460122AE
:1039B0004FF0FF33FEF7B8FA20464FF400610122C2
:1039C000FDF7D4FD4FF0010A20464FF400610022BC
:1039D0008DF803A0FDF7CAFD20464FF48061012257
:1039E000FDF7C4FD0DF10301284601224FF0FF331E
:1039F000FEF79AFA20464FF400610122FDF7B6FD6A
:103A0000E0208DF8030020464FF400610022FDF70E
:103A1000ADFD20464FF480610022FDF7A7FD0DF1BA
:103A20000301284601224FF0FF33FEF77DFA2046BE
:103A30004FF400610122FDF799FD0F208DF803007E
:103A400020464FF400610022FDF790FD20464FF420
:103A500080610122FDF78AFD0DF103012846012254
:103A60004FF0FF33FEF760FA20464FF40061012269
:103A7000FDF77CFD4FF01D0920464FF40061002248
:103A80008DF80390FDF772FD20464FF4806101220E
:103A9000FDF76CFD0DF10301284601224FF0FF33C5
:103AA000FEF742FA20464FF400610122FDF75EFD69
:103AB00020464FF4006100228DF80360FDF756FDAB
:103AC00020464FF480610122FDF750FD0DF1030106
:103AD000284601224FF0FF33FEF726FA20464FF426
:103AE00000610122FDF742FD20464FF400610022F3
:103AF0008DF80370FDF73AFD20464FF480610122F6
:103B0000FDF734FD0DF10301284601224FF0FF338C
:103B1000FEF70AFA20464FF400610122FDF726FD68
:103B20000D208DF8030020464FF400610022FDF7C0
:103B30001DFD20464FF480610122FDF717FD0DF1B8
:103B40000301284601224FF0FF33FEF7EDF920462E
:103B50004FF400610122FDF709FD4FF007082046F0
:103B60004FF4006100228DF80380FDF7FFFC204632
:103B70004FF480610122FDF7F9FC0DF103012846A5
:103B800001224FF0FF33FEF7CFF920464FF40061DA
:103B90000122FDF7EBFC49208DF8030020464FF48D
:103BA00000610022FDF7E2FC20464FF48061012213
:103BB000FDF7DCFC0DF10301284601224FF0FF3335
:103BC000FEF7B2F920464FF400610122FDF7CEFC6A
:103BD00066208DF8030020464FF400610022FDF7B7
:103BE000C5FC20464FF480610122FDF7BFFC0DF1BA
:103BF0000301284601224FF0FF33FEF795F92046D6
:103C00004FF400610122FDF7B1FC3B208DF8030069
:103C100020464FF400610022FDF7A8FC20464FF437
:103C200080610122FDF7A2FC0DF10301284601226B
:103C30004FF0FF33FEF778F920464FF40061012280
:103C4000FDF794FC20464FF4006100228DF80380BC
:103C5000FDF78CFC20464FF480610122FDF786FCC5
:103C60000DF10301284601224FF0FF33FEF75CF906
:103C700020464FF400610122FDF778FC11208DF8F9
:103C8000030020464FF400610022FDF76FFC204640
:103C90004FF480610122FDF769FC0DF10301284614
:103CA00001224FF0FF33FEF73FF920464FF4006149
:103CB0000122FDF75BFC20464FF4006100228DF8E5
:103CC00003A0FDF753FC20464FF480610122FDF76D
:103CD0004DFC0DF10301284601224FF0FF33FEF7A2
:103CE00023F920464FF400610122FDF73FFC092033
:103CF0008DF8030020464FF400610022FDF736FCEA
:103D000020464FF480610122FDF730FC0DF10301E4
:103D1000284601224FF0FF33FEF706F920464FF404
:103D200000610122FDF722FC4FF0050A20464FF406
:103D3000006100228DF803A0FDF718FC20464FF427
:103D400080610122FDF712FC0DF1030128460122DA
:103D50004FF0FF33FEF7E8F820464FF400610122F0
:103D6000FDF704FC042720464FF4006100228DF883
:103D70000370FDF7FBFB20464FF480610122FDF745
:103D8000F5FB0DF10301284601224FF0FF33FEF74A
:103D9000CBF820464FF400610122FDF7E7FBE1205C
:103DA0008DF8030020464FF400610022FDF7DEFB92
:103DB00020464FF480610022FDF7D8FB0DF103018E
:103DC000284601224FF0FF33FEF7AEF820464FF4AD
:103DD00000610122FDF7CAFB20464FF4006100227A
:103DE0008DF803B0FDF7C2FB20464FF4806101223D
:103DF000FDF7BCFB0DF10301284601224FF0FF3314
:103E0000FEF792F820464FF400610122FDF7AEFB69
:103E100018208DF8030020464FF400610022FDF7C2
:103E2000A5FB20464FF480610122FDF79FFB0DF1B9
:103E30000301284601224FF0FF33FEF775F82046B4
:103E40004FF400610122FDF791FB20464FF4006121
:103E500000228DF80390FDF789FB20464FF4806126
:103E60000122FDF783FB0DF10301284601224FF0EB
:103E7000FF33FEF759F820464FF400610122FDF7A9
:103E800075FB02208DF8030020464FF400610022EC
:103E9000FDF76CFB20464FF480610122FDF766FBC5
:103EA0000DF10301284601224FF0FF33FEF73CF8E5
:103EB00020464FF400610122FDF758FB0F208DF8DA
:103EC000030020464FF4006100220F26FDF74EFB51
:103ED00020464FF480610122FDF748FB0DF10301FC
:103EE000284601224FF0FF33FEF71EF820464FF41C
:103EF00000610122FDF73AFB20464FF400610022E9
:103F00008DF80370FDF732FB20464FF480610122EB
:103F1000FDF72CFB0DF10301284601224FF0FF3382
:103F2000FEF702F820464FF400610122FDF71EFB68
:103F300036208DF8030020464FF400610022FDF783
:103F400015FB20464FF480610122FDF70FFB0DF1B8
:103F50000301284601224FF0FF33FDF7E5FF20461D
:103F60004FF400610122FDF701FB132720464FF4B7
:103F7000006100228DF80370FDF7F8FA20464FF437
:103F800080610122FDF7F2FA0DF1030128460122BA
:103F90004FF0FF33FDF7C8FF20464FF400610122C8
:103FA000FDF7E4FA4C208DF8030020464FF4006141
:103FB0000022FDF7DBFA20464FF480610122FDF775
:103FC000D5FA0DF10301284601224FF0FF33FDF72A
:103FD000ABFF20464FF400610122FDF7C7FA2046EF
:103FE0004FF4006100228DF80380FDF7BFFA2046F0
:103FF0004FF480610122FDF7B9FA0DF10301284663
:1040000001224FF0FF33FDF78FFF20464FF4006190
:104010000122FDF7ABFA20464FF4006100228DF833
:104020000370FDF7A3FA20464FF480610122FDF7EB
:104030009DFA0DF10301284601224FF0FF33FDF7F1
:1040400073FF20464FF400610122FDF78FFA2046EE
:104050004FF4006100228DF80360FDF787FA2046D7
:104060004FF480610122FDF781FA0DF1030128462A
:1040700001224FF0FF33FDF757FF20464FF4006158
:104080000122FDF773FA2E208DF8030020464FF42D
:1040900000610022FDF76AFA20464FF48061012298
:1040A000FDF764FA0DF10301284601224FF0FF33BA
:1040B000FDF73AFF20464FF400610122FDF756FA62
:1040C0002F208DF8030020464FF400610022FDF7F9
:1040D0004DFA20464FF480610122FDF747FA0DF1B9
:1040E0000301284601224FF0FF33FDF71DFF204654
:1040F0004FF400610122FDF739FA20464FF40061C8
:1041000000228DF803A0FDF731FA20464FF48061BC
:104110000122FDF72BFA0DF10301284601224FF091
:10412000FF33FDF701FF20464FF400610122FDF748
:104130001DFA2B208DF8030020464FF40061002269
:10414000FDF714FA20464FF480610022FDF70EFAC5
:104150000DF10301284601224FF0FF33FDF7E4FE85
:1041600020464FF400610122FDF700FA20464FF48B
:10417000006100228DF803B0FDF7F8F920464FF4F6
:1041800080610122FDF7F2F90DF1030128460122B9
:104190004FF0FF33FDF7C8FE20464FF400610122C7
:1041A000FDF7E4F920464FF4006100228DF803B0DA
:1041B000FDF7DCF920464FF480610122FDF7D6F9C6
:1041C0000DF10301284601224FF0FF33FDF7ACFE4D
:1041D00020464FF400610122FDF7C8F901208DF857
:1041E000030020464FF400610022FDF7BFF920468E
:1041F0004FF480610122FDF7B9F90DF10301284662
:1042000001224FF0FF33FDF78FFE20464FF400618F
:104210000122FDF7ABF93F208DF8030020464FF453
:1042200000610022FDF7A2F920464FF480610122CF
:10423000FDF79CF90DF10301284601224FF0FF33F1
:10424000FDF772FE20464FF400610122FDF78EF962
:104250002A208DF8030020464FF400610022FDF76C
:1042600085F920464FF480610022FDF77FF90DF1BA
:104270000301284601224FF0FF33FDF755FE20468B
:104280004FF400610122FDF771F920464FF40061FF
:1042900000228DF803B0FDF769F920464FF48061E4
:1042A0000122FDF763F90DF10301284601224FF0C9
:1042B000FF33FDF739FE20464FF400610122FDF780
:1042C00055F920464FF4006100228DF803B0FDF748
:1042D0004DF920464FF480610122FDF747F90DF1B9
:1042E0000301284601224FF0FF33FDF71DFE204653
:1042F0004FF400610122FDF739F920464FF40061C7
:1043000000228DF803B0FDF731F920464FF48061AB
:104310000122FDF72BF90DF10301284601224FF090
:10432000FF33FDF701FE20464FF400610122FDF747
:104330001DF9EF208DF8030020464FF400610022A4
:10434000FDF714F920464FF480610122FDF70EF9C4
:104350000DF10301284601224FF0FF33FDF7E4FD84
:1043600020464FF400610122FDF700F911208DF87D
:10437000030020464FF400610022FDF7F7F82046C5
:104380004FF480610022FDF7F1F80DF1030128469A
:1043900001224FF0FF33FDF7C7FD20464FF40061C7
:1043A0000122FDF7E3F87820FCF7C4FF29208DF8FF
:1043B000030020464FF400610022FDF7D7F82046A5
:1043C0004FF480610022FDF7D1F80DF1030128467A
:1043D00001224FF0FF33FDF7A7FD20464FF40061A7
:1043E0000122FDF7C3F8FEF747FD4FF6FF70FEF719
:1043F000CFFC01B0BDE8F08F2DE9F04784B040F26A
:10440000180AC2F2000A89469AF80C1040F60044D5
:10441000C4F20104164607468DF8051020464FF4F5
:10442000006100229846FDF7A1F820464FF4806114
:104430000022FDF79BF843F2B805C2F200050DF12A
:104440000501284601224FF0FF33FDF76DFD2046A0
:104450004FF400610122FDF789F8380A8DF8060053
:1044600020464FF400610022FDF780F820464FF40B
:1044700080610122FDF77AF80DF10601284601223C
:104480004FF0FF33FDF750FD20464FF4006101224D
:10449000FDF76CF820464FF4006100228DF807709C
:1044A000FDF764F820464FF480610122FDF75EF8C5
:1044B0000DF10701284601224FF0FF33FDF734FDCF
:1044C00020464FF400610122FDF750F8300A8DF8C4
:1044D000080020464FF400610022FDF747F820460F
:1044E0004FF480610122FDF741F802A9284601221C
:1044F0004FF0FF33FDF718FD20464FF40061012215
:10450000FDF734F820464FF4006100228DF8096071
:10451000FDF72CF820464FF480610122FDF726F8C4
:104520000DF10901284601224FF0FF33FDF7FCFC95
:1045300020464FF400610122FDF718F89AF80E00AA
:104540004FF400618DF80A0020460022FDF70EF8B6
:1045500020464FF480610022FDF708F80DF10A01B2
:10456000284601224FF0FF33FDF7DEFC20464FF4D2
:1045700000610122FCF7FAFF4FEA19208DF80B00C9
:1045800020464FF400610022FCF7F0FF20464FF474
:1045900080610122FCF7EAFF0DF10B0128460122A0
:1045A0004FF0FF33FDF7C0FC20464FF400610122BD
:1045B000FCF7DCFF20464FF4006100228DF80C90E0
:1045C000FCF7D4FF20464FF480610122FCF7CEFFB8
:1045D00003A9284601224FF0FF33FDF7A5FC204632
:1045E0004FF400610122FCF7C1FF4FEA18208DF85B
:1045F0000D0020464FF400610022FCF7B7FF204673
:104600004FF480610122FCF7B1FF0DF10D01284646
:1046100001224FF0FF33FDF787FC20464FF4006185
:104620000122FCF7A3FF20464FF4006100228DF821
:104630000E80FCF79BFF20464FF480610122FCF7BF
:1046400095FF0DF10E01284601224FF0FF33FDF7D3
:104650006BFC20464FF400610122FCF787FF9AF8BB
:104660000A004FF400618DF80F0020460022FCF78D
:104670007DFF20464FF480610022FCF777FF0DF1AB
:104680000F01284601224FF0FF33FDF74DFC204675
:104690004FF400610122FCF769FF04B0BDE8F08728
:1046A0002DE9F04F85B0914640F21802C2F20002A7
:1046B0000F9C12880393009200EB54020B19013AED
:1046C000013B92B29BB2FFF797FE14B10F980128FD
:1046D00012D140F218010098C2F200010880488807
:1046E00089880138013982B28BB200200021FFF79E
:1046F00083FE05B0BDE8F08FDDE90E0140F6004411
:104700004FEA510A04A94E1C0DF1120120384F1C2A
:1047100048F2A801C0B2C0F6000143F2B805C4F2E5
:104720000104002201EB0010C2F20005019004E038
:10473000029A0F9801328242CBD001984FF00008C4
:1047400010F802B0029229E003984FF40061ADF82E
:10475000120020460022FCF709FF20464FF480613A
:104760000122FCF703FF2846394601224FF0FF33B0
:10477000FDF7DAFB28460DF1120101224FF0FF335D
:10478000FDF7D2FB20464FF400610122FCF7EEFE5C
:1047900008F10108D0454FEA5B0BC9D25FEACB7044
:1047A000D2D020464FF400610022ADF81090FCF703
:1047B000DDFE20464FF480610122FCF7D7FE28463B
:1047C000314601224FF0FF33FDF7AEFB284604A926
:1047D000D3E70000B0B584B043F2440042F2004198
:1047E000C2F20000C4F2010100244FF400220125AE
:1047F00004730475C261C0E9001484600561FCF7AC
:1048000023FA002818BFFCF759F90520039043F25A
:104810004400C2F2000001A9CDE90145FCF754F9BA
:10482000002818BFFCF74AF904B0B0BD80B582B0CB
:1048300041F21400C4F202000168002241F00101BB
:1048400001600068002100F00100019001980B2038
:10485000FCF712FF0B2002B0BDE88040FCF7FABE67
:104860002DE9F04186B0002641F21800CDE904663A
:10487000CDE90266C4F20200016840F6004841F04A
:10488000200101600168C4F2010801F020010191DA
:1048900001990168012241F00401016001680127CA
:1048A00001F0040101910199016841F008010160E2
:1048B00000684FF4F05100F0080001900198404664
:1048C000FCF754FE4FF4E05002ADCDE9020703249B
:1048D0004046294604970594FCF740FD4FF40070CC
:1048E000CDE9020740462946CDE90464FCF736FDD0
:1048F00006B0BDE8F081000080B543F2B80043F691
:104900000001C2F20000C4F200014FF482720023E1
:104910004FF4007C80E80E000A21C0E90333C0E9AF
:10492000053CC361C0E90833C0E90A31FDF768FA04
:10493000002808BF80BDBDE88040FCF7BFB800007C
:1049400080B586B02020009043F2101040F2004263
:104950000021C2F20000C4F20002472340F2E73C0B
:104960000591CDE903110191C0E90023C0E9021CC2
:1049700001618161FDF72CFC002818BFFCF79EF84F
:104980004FF48050029043F21010C2F2000002A9CE
:10499000FDF7E8FC002818BFFCF790F843F2101070
:1049A000C2F200006946FDF7D3FB002818BFFCF7F0
:1049B00085F806B080BD000080B543F2581043F67C
:1049C0000001C2F20000C4F2010100234FF00C0C00
:1049D0004FF4E13280E80E00C0E90333C0E905C3BB
:1049E000C361FEF74BF8002808BF80BDBDE88040DA
:1049F000FCF764B8FEE70000FEE700007047000027
:104A00002DE9F04381B0089C984615460E46814634
:104A1000FCF7B2FD201A00EB0804FCF7ADFD40F2F4
:104A20001001C2F200010968C1F3CB31614300916A
:104A3000D9F800108A683240921BB2FA82F2520909
:104A400095423DD0074618F1010031D0FCF794FDA6
:104A5000C01BA04238D2009800990028A1F10101A2
:104A60000091D9F80010896808BF044601EA0600E1
:104A7000801BB0FA80F040098542E7D120E000BFFA
:104A800088683040801BB0FA80F04009854217D01A
:104A900088683040801BB0FA80F0400985420FD012
:104AA00088683040801BB0FA80F04009854207D00A
:104AB00088683040801BB0FA80F040098542DFD121
:104AC000002001B0BDE8F083D9E900014268B1F5EA
:104AD000827F22F0E00242600BD1D9F80810B1F5D4
:104AE000004F02D0B1F5806F03D1016821F0400181
:104AF0000160D9F82810B1F5005F07D1016821F4F1
:104B000000510160016841F400510160012089F801
:104B10005100002089F85000032001B0BDE8F08367
:104B200070470000FCF72EBD70470000406A00216E
:104B3000C185C184FDF7E8BC81B090F842102229FC
:104B400021D183680246B3F5805F09D152F8281F4E
:104B500052F8183C002B63D003685B680AE000BF82
:104B600052F8281F13B90369002BF5D003685B685E
:104B700003F07F030B70116801311160C18D0139A1
:104B80000A04C18502D001B0704700BF0168CA683D
:104B900022F02002CA60CA6822F48072CA604A69A0
:104BA00022F001024A61202180F842100021416375
:104BB000026B012A3CD10163016851E8031F0268BE
:104BC00021F0100142E80313DBB1016851E8031F33
:104BD000026821F0100142E8031393B1016851E823
:104BE000031F026821F0100142E803134BB1016872
:104BF00051E8031F026821F0100142E80313002B63
:104C0000DAD101680A68D20606D5002200920A6845
:104C10000092496800910099818D01B0FDF772BC46
:104C2000026852686FF35F2221F8022B8162A5E7C8
:104C300001B0FDF7DDBF000043F25810C2F20000E2
:104C4000FDF764BCFEE700002DE9F04FABB0B0F813
:104C50000090984692460446012A8B4631D1B9F11C
:104C6000000F2ED00BF10400B9F1040F09F003017D
:104C700016D329F0030200BF03688768066983F032
:104C800000438569036087F00043836086F000433A
:104C9000036185F000438361043A00F12000EBD109
:104CA00079B10268012982F00042026009D082686D
:104CB000022982F00042826003D0016981F0004144
:104CC0000161B9F1FF0FCDF8A8B00FDDB9F5806F24
:104CD000C0F27E81B9F5805F00F08081B9F5006F88
:104CE00000F08881B9F5806F14D07DE1B9F13F0FF4
:104CF00008DCB9F1100F0DD0B9F1200F00F07A8166
:104D000072E100BFB9F1400F00F06881B9F1800F86
:104D100040F06A810BEB8900149060684FEA5901FA
:104D2000159088006FF00F0300EB89004FEAD9025D
:104D3000139103EB810103EB89070838CDF810804C
:104D4000CDF818A00594CDF81C9000BFCDE9231331
:104D50000BEB01080BEB0701CDE921070BEB030A75
:104D6000289158440D6901F1140BD8F810102090C7
:104D70001691D8F8141025921891D8F81810DAF86E
:104D800010201C91D8F81C10DAF81C601E91816864
:104D9000DAE905792791C16826961791016940697A
:104DA0009BE850081D9015981991184429901046B9
:104DB00029461F921B95FBF7E6F9CAF81000384602
:104DC0002146FBF7E0F9CAF8140048463146FBF7E4
:104DD000DAF9CAF8180026985946FBF7D4F9CAF848
:104DE0001C001F981B99FBF720FA1B9038462146A0
:104DF000FBF71BFA1A9048463146FBF716FA1F904C
:104E000026985946FBF711FADDF858B027992690F5
:104E10005846FBF7B8F9DDF86090DDF85CA0C8F8FB
:104E2000100048465146FBF7AEF91C9D199FC8F883
:104E3000140028463946FBF7A6F91E9C1D9EC8F8AB
:104E4000180020463146FBF79EF9C8F81C00279849
:104E50005946FBF7EAF9169050464946FBF7E5F943
:104E6000189038462946FBF7E0F92790304621464E
:104E7000FBF7DBF929991B9ED1E904451E903046CA
:104E80002146FBF7D8F91A9F804638462946FBF79A
:104E9000D2F9834638462146FBF7CDF982463046A3
:104EA0002946FBF7C8F9814640465946FBF76BF99E
:104EB000289E494630615046FBF7B7F97061169E4F
:104EC00029463046FBF7B7F9189F804638462146F9
:104ED000FBF7B1F9814638462946FBF7ACF90546A0
:104EE00030462146FBF7A7F9044640464946FBF702
:104EF0009CF9DDF880A02946CAF808002046FBF797
:104F000042F9CAF80C0029981F9ED0E906453046A0
:104F10002146FBF790F9269F804638462946FBF745
:104F20008AF9834638462146FBF785F981463046A3
:104F30002946FBF780F9064640465946DDF8A8B0F9
:104F4000FBF721F9289F3146B8614846FBF76DF918
:104F5000279EF86130462946FBF76DF91E9F804673
:104F600038462146FBF767F9814638462946FBF764
:104F700062F9054630462146FBF75DF90446404696
:104F80004946FBF752F9CAF8100020462946FBF7BC
:104F9000FAF8DDE92271DDE92432CAF8140021981B
:104FA000013A03F1100301F1100107F1100700F1BC
:104FB00010007FF4CBAE139D159A58462946022364
:104FC00000F0C6FE059C1498626829460223CBE3D4
:104FD000B9F5807F0ED0B9F5007F05D162685846DB
:104FE0004946012300F0B4FEB8F1000F40F0C6833B
:104FF00000F08CBC2A984FEA590B00EB8B0101EBB7
:105000008B00CDF8108000EB8B0806466068059495
:1050100008904FEA990000902A9851F82B40D0E967
:105020000057CDF818A08A46019128462146CDF8B0
:105030000C80FBF7A8F8259028462146FBF7F5F8E9
:10504000746805462490384621460296FBF79BF883
:10505000239038462146FBF7E8F8DAF80470044656
:10506000229028463946FBF78EF8D8F80450294696
:10507000FBF7DBF82A99299051F82BA020465146DE
:10508000FBF7D3F856F82B804146FBF77CF8259EBA
:10509000289030465146FBF7C8F84146FBF7C5F863
:1050A000239C279020463946FBF7BFF82946FBF79B
:1050B000BCF8269024983946FBF7B7F82946FBF749
:1050C00062F8249022985146FBF75DF84146FBF7C1
:1050D000ACF8229030465146FBF755F84146FBF7B5
:1050E00052F82A99086020463946FBF74CF82946C1
:1050F000FBF749F82A996FF007024860DDE92910AB
:1051000002EB8B0640F82B1001982899CDF81C90E3
:10511000416027996FF00F0840F82B1002982699EC
:105120004160249940F82B100398229941606FF058
:10513000010000EB990029F001014FEA500C6FF0DB
:10514000030001EB590100EB0B1502EB810A02EBA6
:10515000CB0100EBCB04DDF8A8B06FF01700574689
:10516000B14624900898CDE91EA20BEB020302443D
:1051700012920BEB0502219200EB080217920BEB47
:105180000702CDE91C1C23920BEB01022499CDE907
:105190002674084419900BEB0400CDE9285625909D
:1051A0000BEB0600D3E90445D2E90467CDF868901B
:1051B000D9442290204631461093CDF88090CDF806
:1051C0006C8018920BEB0A08FAF7DDFF8346204645
:1051D0003146FBF72AF80446169028463946FAF776
:1051E000D2FF824628463946FBF71FF8D9E90476F4
:1051F000814620463146FAF7C6FFD8E90454CDF877
:1052000054802146FBF711F80E9048463946FBF7CB
:105210000CF82946FAF7B7FF0D9058463946FBF7C8
:1052200004F82946FBF701F8139050463146FAF787
:10523000FCFF2146FAF7F9FF119016983146FAF76C
:10524000F4FF2146FAF79FFF169048463946FAF7D1
:105250009AFF2946FAF7E9FF149058463946FAF7BB
:1052600092FF2946FAF78FFF109C20612098416930
:105270005046FAF788FFD8F81410FAF784FF6061F7
:10528000DDE9291044582A98269945582046294690
:10529000FAF779FF804620462946FAF7C6FF229999
:1052A00006464C68239910904D6820462946FAF727
:1052B0006AFF074620462946FAF7B7FF2A99279A38
:1052C000054651F802B02A99289A0F9051F802A089
:1052D00058465146FAF7A9FF044630462146FAF7E8
:1052E00052FF25990A9051F8049C28464946FAF73E
:1052F0009CFF219E56F8045C2946FAF744FF09906A
:1053000040464946FAF791FF2946FAF78EFF0C907E
:1053100038465946FAF789FF5146FAF786FF109941
:105320000B902046FAF781FF109028464946FAF77D
:105330007CFF0F99FAF779FF0F9038465946DDF850
:10534000A8B0FAF720FF5146FAF71DFF2299DDF8C1
:1053500094A048605AF8041C4046FAF714FF56F827
:10536000041CFAF710FF29990E9C4BF801001298C3
:10537000D0E9045620462946FAF75DFF0D9F804686
:1053800038463146FAF757FF824638462946FAF73B
:1053900052FF814620463146FAF74DFF044640460B
:1053A0005146FAF7F0FE209F214638614846FAF749
:1053B0003CFF7861099F31463846FAF73CFF0A9C6A
:1053C000804620462946FAF736FF81462046314678
:1053D000FAF731FF064638462946FAF72CFF05460C
:1053E00040464946FAF721FF27994BF80100284625
:1053F0003146FAF7C8FE2599139E41F8040C179818
:10540000D0E9085430462946FAF715FF119F804627
:1054100038462146FAF70FFF824638462946FAF702
:105420000AFF814630462146FAF705FF0646404608
:105430005146FAF7A8FE189F314638614846FAF7F8
:10544000F4FE78610B9F284687F00041FAF7F3FEDF
:105450000C9E804630462146FAF7EDFE81463046E6
:105460002946FAF7E8FE054638462146FAF7E3FEF4
:10547000044640464946FAF7D8FE2399486020463C
:105480002946FAF7D2FE2699169E4BF80100199884
:10549000D0E90C4530462146FAF7CDFE149F8046F0
:1054A00038462946FAF7C7FE824638462146FAF7BB
:1054B000C2FE814630462946FAF7BDFE0646404602
:1054C0005146FAF760FE159FDDF878A0386148462E
:1054D0003146FAF7AAFE0F9E786130462946FAF760
:1054E000AAFE109F804638462146FAF7A4FE814660
:1054F00038462946FAF79FFE054630462146FAF718
:105500009AFE044640464946FAF78FFE28994BF822
:10551000010020462946FAF736FE219BDDE9267474
:10552000DDE92856DDE91C1C1F9A43F8040CDDF860
:105530006890DDF86C802498BCF1010C02F108023F
:1055400009F10809A5F1080508F11008A7F10807F5
:1055500001F1080100F11800A4F108040AF1080A99
:10556000A6F1080624907FF4FDAD0BEB02030BEBD4
:105570000100D3E9044BD0E9045627902046294680
:1055800023931F92FAF7FFFD1C9020462946FAF755
:105590004CFE054658463146FAF7F5FD1D90584633
:1055A0003146FAF742FE2A9907464944D1E90446B2
:1055B0002891259028463146AB46FAF7E4FD2A9912
:1055C0005144D1E9045929914946FAF72EFE209019
:1055D00038462146FAF729FE2946FAF7D4FD1C9FE2
:1055E0001E9038462146FAF720FE2946FAF71DFE9E
:1055F000DDF874A0229050463146FAF716FE49466F
:10560000FAF713FE21905846DDF8A8B03146FAF7B4
:105610000CFE4946FAF7B7FD269025982146FAF781
:10562000B2FD2946FAF701FE259038462146FAF7E1
:10563000AAFD2946FAF7A7FD239C20612898416915
:105640005046FAF7A0FD29994969FAF79CFD606177
:105650001F980899DDF880A00844D0E90445504619
:105660002146FAF7E8FDDDF87890064648462946D7
:10567000FAF7E1FD074648462146FAF7DCFD044605
:1056800050462946FAF7D7FD054630463946FAF71F
:105690007AFD289E294630612046FAF7C6FDDDF8DE
:1056A0002090706109EB0800D0E90845229E214650
:1056B0003046FAF7C0FD219F804638462946FAF762
:1056C000BAFD824638462146FAF7B5FD0446304613
:1056D0002946FAF7B0FD054640465146FAF753FD14
:1056E000279E294630612046FAF79FFD7061249875
:1056F000269E4844D0E90C4530462146FAF79BFDEA
:10570000259F804638462946FAF795FD8246384659
:105710002146FAF790FD044630462946FAF78BFDFC
:10572000054640465146FAF72EFD299E294630612E
:105730002046FAF77AFD009D7061584629464A4690
:10574000042300F005FB059C0198626829460423A8
:1057500000F0FEFA626802982946042300F0F8FA85
:10576000626803982946042300F0F2FADDE906A9ED
:10577000DDF81080B8F1000F00F0C880A089002883
:1057800000F0C480421E0123D4F8088003EB5202CB
:10579000072802F0030C03D24FF0000E68E000BFB0
:1057A00022F0030308F10E074FEA430E37F80E6CA0
:1057B00037F80C5C26F0030625F003055BF80600BD
:1057C0005BF805200BEB06040BEB05014BF80620FC
:1057D0004BF805004868626860604A6037F80A0C58
:1057E00037F8081C20F0030021F003015BF80040AB
:1057F0005BF801500BEB00020BEB01064BF800507D
:105800004BF80140706851685060716037F8060CC1
:1058100037F8041C20F0030021F003015BF800407E
:105820005BF801500BEB00020BEB01064BF800504C
:105830004BF80140706851685060716037F8020C95
:1058400037F8101B20F0030021F003015BF8004043
:105850005BF801500BEB00020BEB01064BF800501C
:105860004BF8014070685168043B506071609DD1F5
:10587000BCF1000F4AD008EB4E0338F81E005988DF
:1058800020F0030021F003015BF800705BF8016079
:105890000BEB00020BEB01054BF800604BF80170BD
:1058A00068685168BCF1010F506069602ED098881B
:1058B000D98820F0030021F003015BF800705BF849
:1058C00001600BEB00020BEB01054BF800604BF89D
:1058D000017068685168BCF1020F5060696015D0B2
:1058E0001889598920F0030021F003015BF800308A
:1058F0005BF801700BEB00020BEB01064BF800703C
:105900004BF801307068516850607160BAF1010F56
:1059100040F088804846FAF7A2FE01464FF07E50DC
:10592000FAF7BBFCB9F1000F7CD00546B9F1040FC2
:1059300009F0030843D329F0030700BFDBE9001691
:10594000DBE902492846FAF776FCCBF8000086F03E
:1059500000412846FAF76FFCCBF8040028462146A0
:10596000FAF769FCCBF8080089F000412846FAF7FD
:1059700062FCDBF81010CBF80C002846FAF75BFC51
:10598000DBF81410CBF8100081F000412846FAF73C
:1059900052FCDBF81810CBF814002846FAF74BFC41
:1059A000DBF81C10CBF8180081F000412846FAF70C
:1059B00042FCCBF81C00043F0BF1200BBED1B8F128
:1059C000000F2FD0DBE900142846FAF734FCCBF89F
:1059D000000084F000412846FAF72DFCB8F1010FD1
:1059E000CBF804001ED0DBE902142846FAF723FCAA
:1059F000CBF8080084F000412846FAF71CFCB8F107
:105A0000020FCBF80C000DD0DBE904142846FAF79E
:105A100012FCCBF8100084F000412846FAF70BFC8A
:105A2000CBF814002BB0BDE8F08F000048F2980CC2
:105A3000C0F6000CDCE901320146C1E901324FF445
:105A40008060BCF80C20088000208A81704700002C
:105A5000002A08BF70472DE9F04381B014468846FC
:105A6000064612F003091BD0D6E900700146FAF78A
:105A7000E2FB054638463946FAF7DDFB2946FAF7D8
:105A800082FB01F0DEFB4146B9F1010F41F8040B46
:105A90000AD10836A4F101098846042C3BD282E0E1
:105AA000A146042C37D27EE0D6E902500146FAF72F
:105AB000C2FB074628462946FAF7BDFB3946FAF7E6
:105AC00062FB01F0BEFBB9F1020FC8F8040007D178
:105AD000103608F10808A4F10209042C1BD262E078
